:020000040800F2
:100000007006002089010008910100089301000892
:100010009501000897010008990100080000000000
:100020000000000000000000000000009B0100082C
:100030009D010008000000009F010008A1010008C8
:10004000A3010008A3010008A3010008A301000800
:10005000A3010008A3010008A3010008A3010008F0
:10006000A3010008A3010008A3010008A3010008E0
:10007000A3010008A3010008A3010008A3010008D0
:10008000A3010008A3010008A3010008A3010008C0
:10009000A3010008A3010008A3010008A3010008B0
:1000A000A3010008A3010008A3010008A3010008A0
:1000B000A3010008A3010008A3010008A301000890
:1000C000A3010008A3010008A3010008A301000880
:1000D000A3010008A3010008A3010008A301000870
:1000E000A3010008A3010008A301000800F002F822
:1000F00000F03AF80AA090E8000C82448344AAF188
:100100000107DA4501D100F02FF8AFF2090EBAE885
:100110000F0013F0010F18BFFB1A43F0010318473B
:10012000B8050000D8050000103A24BF78C878C18F
:10013000FAD8520724BF30C830C144BF04680C60ED
:10014000704700000023002400250026103A28BF35
:1001500078C1FBD8520728BF30C148BF0B60704739
:100160001FB51FBD10B510BD00F031F81146FFF7E7
:10017000F7FF00F09DFA00F04FF803B4FFF7F2FF2D
:1001800003BC00F057F800000948804709480047C1
:10019000FEE7FEE7FEE7FEE7FEE7FEE7FEE7FEE737
:1001A000FEE7FEE704480549054A064B7047000094
:1001B00049060008ED0000087000002070060020CD
:1001C000700200207002002070477047704775462B
:1001D00000F02CF8AE4605006946534620F00700B3
:1001E000854618B020B5FFF7DDFFBDE820404FF091
:1001F00000064FF000074FF000084FF0000BAC4630
:10020000ACE8C009ACE8C009ACE8C009ACE8C0097A
:1002100021F007018D46704710B50446AFF300800A
:100220002046BDE81040FFF7A8BF00000048704717
:100230001000002001491820ABBEFEE72600020096
:100240007047000080B584B0039004208DF80B0047
:100250004FF4302000F0DCF88DF80B009DF80B0017
:10026000042820D1FFE742F21001C4F202010191FB
:10027000086840F002000860039842F21402C4F2D9
:1002800002021060086840F0400008604FF430201F
:1002900000F0BEF801998DF80B00086841F6FD7278
:1002A00010400860FFE79DF80B0004B080BD00001F
:1002B00081B004208DF8030042F20C00C4F2020069
:1002C0000068C00720B1FFE701208DF803001FE0A0
:1002D00042F20C00C4F2020000684007002804D576
:1002E000FFE702208DF8030011E042F20C00C4F297
:1002F00002000068C006002804D5FFE703208DF83F
:10030000030003E004208DF80300FFE7FFE7FFE7A9
:100310009DF8030001B0704782B0019000208DF875
:1003200003000198012811D1FFE742F21C00C4F23A
:1003300002000068C00720B1FFE701208DF803002C
:1003400003E000208DF80300FFE711E042F20C000B
:10035000C4F2020000680199084204D0FFE70120BE
:100360008DF8030003E000208DF80300FFE7FFE7AE
:100370009DF8030002B0704742F21001C4F202017E
:10038000086840F0800008607047000080B584B0C5
:100390000390ADF80A1004208DF809004FF40050C6
:1003A00000F036F88DF809009DF8090004281AD1EC
:1003B000FFE742F21001C4F202010191086840F027
:1003C00001000860BDF80A00039908804FF400504E
:1003D00000F01EF801998DF80900086841F6FE72D8
:1003E00010400860FFE79DF8090004B080BD0000E0
:1003F00042F20401C4F2020140F22310C4F2675039
:10040000086048F6AB10CCF6EF500860704700006B
:1004100080B584B0039004208DF80B00FFF748FFEF
:100420008DF80B00FFE79DF80B10002001290190CB
:1004300006D1FFE70398002818BF01200190FFE7CD
:100440000198C00740B1FFE7FFF732FF8DF80B00BE
:10045000039801380390E6E7039820B9FFE70520E9
:100460008DF80B00FFE79DF80B0004B080BD000085
:1004700080B582B00190FFF7BBFFFFE70120FFF7D7
:100480004BFF012801D1FFE7F8E70198FFF7DAFEFB
:10049000FFE70120FFF740FF012801D1FFE7F8E760
:1004A000FFF76AFF02B080BD80B586B00590049169
:1004B0000392FFF79DFFFFE70120FFF72DFF0128C3
:1004C00001D1FFE7F8E70498029000200190FFE7D0
:1004D00001980399013101EBD171B0EB610F18DA8A
:1004E000FFE70598019900EB410002990988FFF7A1
:1004F0004DFFFFE70120FFF70FFF012801D1FFE7C4
:10050000F8E7029802300290FFE70198013001906D
:10051000DEE7FFF731FF06B080BD000080B500F0D8
:1005200001F880BD84B000200390029041F20001E8
:10053000C4F20201086840F480300860FFE741F22D
:100540000000C4F20200006800F40030029003983A
:1005500001300390FFE702990020019039B9FFE7CD
:100560000398B0F5A06018BF01200190FFE7019843
:10057000C0070028E3D1FFE741F20000C4F2020007
:1005800000688003002803D5FFE70120029002E005
:1005900000200290FFE70298012851D1FFE742F2C4
:1005A0000001C4F20201086840F010000860086809
:1005B00020F007000860086840F00200086041F27F
:1005C0000401C4F20201009108680860086808602C
:1005D000086840F480600860086820F47C100860B7
:1005E000086840F4E810086041F20001C4F202011A
:1005F000086840F080700860FFE741F20000C4F234
:10060000020000688001002801D4FFE7F5E741F20D
:100610000401C4F20201086820F0030008600868C1
:1006200040F002000860FFE741F20400C4F202005B
:10063000006800F00C00082801D0FFE7F4E700E0B4
:10064000FFE704B07047000080B541F20002C4F239
:100650000202106840F00100106041F20401C4F28F
:10066000020108680023CFF6FF03184008601068F5
:100670004FF6FF73CFF6F66318401060106820F451
:1006800080201060086820F4FE00086041F2080134
:10069000C4F202014FF41F000860FFF73FFF4EF65F
:1006A0000851CEF200014FF00060086080BD0000EC
:1006B00080B582B0002001900020C0F601000090BB
:1006C000FFF7D6FE009840F20001C2F200010E22B0
:1006D000FFF7EAFEFFE7FEE7F8060008000000204B
:1006E0001000000028010008080700081000002082
:1006F0006006000044010008010203040506070823
:08070000090A0B0C0D0E0000AC
:04000005080000ED02
:00000001FF
